:020000040800F2
:1000000000500020059A0008859400088994000893
:100010008D94000891940008959400080000000059
:10002000000000000000000000000000999400089B
:100030009D94000800000000A1940008A594000809
:100040004D9A00084D9A00084D9A00084D9A0008F4
:100050004D9A00084D9A0008A9940008C59400081C
:100060004D9A0008E1940008019500084D9A000897
:100070004D9A00084D9A00084D9A00084D9A0008C4
:100080004D9A00084D9A00084D9A00084D9A0008B4
:100090004D9A00084D9A00084D9A00084D9A0008A4
:1000A0004D9A00084D9A00084D9A00084D9A000894
:1000B000219500083D9500084D9A00084D9A0008CA
:1000C0004D9A00084D9A00084D9A00084D9A000874
:1000D0004D9A0008759500084D9A00084D9A000841
:1000E000799500084D9A00084D9A0008000000001C
:1000F0000000000000000000000000000000000000
:0C01000000000000000000005FF808F1A3
:1001100010B5054C237833B9044B13B10448AFF341
:1001200000800123237010BD780000200000000033
:10013000A0BC000808B5034B1BB103490348AFF34B
:10014000008008BD000000007C000020A0BC00086A
:1001500081F0004102E000BF83F0004330B54FEA78
:1001600041044FEA430594EA050F08BF90EA020FE5
:100170001FBF54EA000C55EA020C7FEA645C7FEA78
:10018000655C00F0E2804FEA5454D4EB5555B8BF9B
:100190006D420CDD2C4480EA020281EA030382EA0C
:1001A000000083EA010180EA020281EA0303362D9E
:1001B00088BF30BD11F0004F4FEA01314FF4801C71
:1001C0004CEA113102D0404261EB410113F0004F83
:1001D0004FEA03334CEA133302D0524263EB43033A
:1001E00094EA050F00F0A780A4F10104D5F1200ED8
:1001F0000DDB02FA0EFC22FA05F2801841F1000133
:1002000003FA0EF2801843FA05F359410EE0A5F106
:1002100020050EF1200E012A03FA0EFC28BF4CF037
:10022000020C43FA05F3C01851EBE37101F00045ED
:1002300007D54FF0000EDCF1000C7EEB00006EEBFA
:100240000101B1F5801F1BD3B1F5001F0CD3490884
:100250005FEA30004FEA3C0C04F101044FEA4452DB
:1002600012F5800F80F09A80BCF1004F08BF5FEA62
:10027000500C50F1000041EB045141EA050130BD42
:100280005FEA4C0C404141EB0101013C28BFB1F554
:10029000801FE9D291F0000F04BF01460020B1FA9F
:1002A00081F308BF2033A3F10B03B3F120020CDA72
:1002B0000C3208DD02F1140CC2F10C0201FA0CF050
:1002C00021FA02F10CE002F11402D8BFC2F1200CB5
:1002D00001FA02F120FA0CFCDCBF41EA0C0190406B
:1002E000E41AA2BF01EB0451294330BD6FEA0404B4
:1002F0001F3C1CDA0C340EDC04F11404C4F120029F
:1003000020FA04F001FA02F340EA030021FA04F3B0
:1003100045EA030130BDC4F10C04C4F1200220FA07
:1003200002F001FA04F340EA0300294630BD21FA45
:1003300004F0294630BD94F0000F83F4801306BF0B
:1003400081F480110134013D4EE77FEA645C18BFFF
:100350007FEA655C29D094EA050F08BF90EA020F96
:1003600005D054EA000C04BF1946104630BD91EA8E
:10037000030F1EBF0021002030BD5FEA545C05D191
:100380004000494128BF41F0004130BD14F58004D0
:100390003CBF01F5801130BD01F0004545F0FE4144
:1003A00041F470014FF0000030BD7FEA645C1ABF79
:1003B000194610467FEA655C1CBF0B46024650EAB0
:1003C000013406BF52EA033591EA030F41F40021DC
:1003D00030BD00BF90F0000F04BF0021704730B562
:1003E0004FF4806404F132044FF000054FF0000137
:1003F00050E700BF90F0000F04BF0021704730B5F8
:100400004FF4806404F1320410F0004548BF4042CC
:100410004FF000013EE700BF42004FEAE2014FEA21
:1004200031014FEA02701FBF12F07F4393F07F4FFC
:1004300081F06051704732F07F4208BF704793F0FF
:100440007F4F04BF41F40021704730B54FF4607412
:1004500001F0004521F000411CE700BF50EA010215
:1004600008BF704730B54FF000050AE050EA0102BE
:1004700008BF704730B511F0004502D5404261EB2E
:1004800041014FF4806404F132045FEA915C3FF46F
:10049000D8AE4FF003025FEADC0C18BF03325FEA0C
:1004A000DC0C18BF033202EBDC02C2F1200300FABD
:1004B00003FC20FA02F001FA03FE40EA0E0021FAE2
:1004C00002F11444BDE600BF70B54FF0FF0C4CF4D0
:1004D000E06C1CEA11541DBF1CEA135594EA0C0F82
:1004E00095EA0C0F00F0DEF82C4481EA030621EABD
:1004F0004C5123EA4C5350EA013518BF52EA0335F8
:1005000041F4801143F4801338D0A0FB02CE4FF0A9
:100510000005E1FB02E506F00042E0FB03E54FF0D9
:100520000006E1FB03569CF0000F18BF4EF0010ED1
:10053000A4F1FF04B6F5007F64F5407404D25FEACD
:100540004E0E6D4146EB060642EAC62141EA555180
:100550004FEAC52040EA5E504FEACE2EB4F1FD0CC2
:1005600088BFBCF5E06F1ED8BEF1004F08BF5FEA40
:10057000500E50F1000041EB045170BD06F00046F2
:1005800046EA010140EA020081EA0301B4EB5C049F
:10059000C2BFD4EB0C0541EA045170BD41F4801197
:1005A0004FF0000E013C00F3AB8014F1360FDEBFBC
:1005B000002001F0004170BDC4F10004203C35DA98
:1005C0000C341BDC04F11404C4F1200500FA05F31B
:1005D00020FA04F001FA05F240EA020001F00042BC
:1005E00021F0004110EBD37021FA04F642EB060132
:1005F0005EEA430E08BF20EAD37070BDC4F10C045C
:10060000C4F1200500FA04F320FA05F001FA04F21F
:1006100040EA020001F0004110EBD37041F100010B
:100620005EEA430E08BF20EAD37070BDC4F1200516
:1006300000FA05F24EEA020E20FA04F301FA05F27E
:1006400043EA020321FA04F001F0004121FA04F226
:1006500020EA020000EBD3705EEA430E08BF20EAF6
:10066000D37070BD94F0000F0FD101F00046400030
:1006700041EB010111F4801F08BF013CF7D041EAB2
:10068000060195F0000F18BF704703F000465200B6
:1006900043EB030313F4801F08BF013DF7D043EA87
:1006A0000603704794EA0C0F0CEA135518BF95EA3D
:1006B0000C0F0CD050EA410618BF52EA4306D1D1C4
:1006C00081EA030101F000414FF0000070BD50EAE3
:1006D000410606BF1046194652EA430619D094EA6D
:1006E0000C0F02D150EA013613D195EA0C0F05D157
:1006F00052EA03361CBF104619460AD181EA0301AB
:1007000001F0004141F0FE4141F470014FF0000062
:1007100070BD41F0FE4141F4780170BD70B54FF0FD
:10072000FF0C4CF4E06C1CEA11541DBF1CEA13557D
:1007300094EA0C0F95EA0C0F00F0A7F8A4EB05045F
:1007400081EA030E52EA03354FEA013100F0888056
:100750004FEA03334FF0805545EA131343EA12631F
:100760004FEA022245EA111545EA10654FEA0026D4
:100770000EF000419D4208BF964244F1FD0404F58D
:10078000407402D25B084FEA3202B61A65EB0305E9
:100790005B084FEA32024FF480104FF4002CB6EBA6
:1007A000020E75EB030E22BFB61A754640EA0C0026
:1007B0005B084FEA3202B6EB020E75EB030E22BF66
:1007C000B61A754640EA5C005B084FEA3202B6EBA7
:1007D000020E75EB030E22BFB61A754640EA9C0066
:1007E0005B084FEA3202B6EB020E75EB030E22BF36
:1007F000B61A754640EADC0055EA060E18D04FEAF4
:10080000051545EA16754FEA06164FEAC30343EA93
:1008100052734FEAC2025FEA1C1CC0D111F4801F60
:100820000BD141EA00014FF000004FF0004CB6E759
:1008300011F4801F04BF01430020B4F1FD0C88BFF8
:10084000BCF5E06F3FF6AFAEB5EB030C04BFB6EB03
:10085000020C5FEA500C50F1000041EB045170BDF6
:100860000EF0004E4EEA113114EB5C04C2BFD4EB23
:100870000C0541EA045170BD41F480114FF0000EA7
:10088000013C90E645EA060E8DE60CEA135594EA23
:100890000C0F08BF95EA0C0F3FF43BAF94EA0C0F26
:1008A0000AD150EA01347FF434AF95EA0C0F7FF49B
:1008B00025AF104619462CE795EA0C0F06D152EAEF
:1008C00003353FF4FDAE1046194622E750EA4106D3
:1008D00018BF52EA43067FF4C5AE50EA41047FF4E4
:1008E0000DAF52EA43057FF4EBAE12E74FF0FF3C49
:1008F00006E000BF4FF0010C02E000BF4FF0010C1A
:100900004DF804CD4FEA410C7FEA6C5C4FEA430C92
:1009100018BF7FEA6C5C1BD001B050EA410C0CBFE1
:1009200052EA430C91EA030F02BF90EA020F002043
:10093000704710F1000F91EA030F58BF994208BFAA
:1009400090422CBFD8176FEAE37040F00100704767
:100950004FEA410C7FEA6C5C02D150EA013C07D1BE
:100960004FEA430C7FEA6C5CD6D152EA033CD3D009
:100970005DF8040B704700BF8446104662468C4603
:100980001946634600E000BF01B5FFF7B7FF002836
:1009900048BF10F1000F01BD4DF808EDFFF7F4FF5F
:1009A0000CBF012000205DF808FB00BF4DF808EDEA
:1009B000FFF7EAFF34BF012000205DF808FB00BF0D
:1009C0004DF808EDFFF7E0FF94BF012000205DF82F
:1009D00008FB00BF4DF808EDFFF7CEFF94BF0120E4
:1009E00000205DF808FB00BF4DF808EDFFF7C4FFDD
:1009F00034BF012000205DF808FB00BF4A0011D27F
:100A000012F5001211D20DD56FF47873B3EB625268
:100A10000ED44FEAC12343F0004343EA505323FA74
:100A200002F070474FF00000704750EA013002D1E9
:100A30004FF0FF3070474FF0000070474FEA41021F
:100A4000B2F1E04324BFB3F5001CDCF1FE5C0DD92C
:100A500001F0004C4FEAC0024CEA5070B2F1004F76
:100A600040EB830008BF20F00100704711F0804F79
:100A700021D113F13872BCBF01F00040704741F43E
:100A800080114FEA5252C2F11802C2F1200C10FA42
:100A90000CF320FA02F018BF40F001004FEAC12326
:100AA0004FEAD32303FA0CFC40EA0C0023FA02F3CA
:100AB0004FEA4303CCE77FEA625307D150EA0133A0
:100AC0001EBF4FF0FE4040F44000704701F0004070
:100AD00040F0FE4040F40000704700BF80F000404E
:100AE00002E000BF81F0004142001FBF5FEA410306
:100AF00092EA030F7FEA226C7FEA236C6AD04FEA06
:100B00001262D2EB1363C1BFD2184140484041404A
:100B1000B8BF5B42192B88BF704710F0004F40F4FC
:100B2000000020F07F4018BF404211F0004F41F418
:100B3000000121F07F4118BF494292EA030F3FD0E4
:100B4000A2F1010241FA03FC10EB0C00C3F12003F7
:100B500001FA03F100F0004302D5494260EB400086
:100B6000B0F5000F13D3B0F1807F06D340084FEAF1
:100B7000310102F10102FE2A51D2B1F1004F40EBE6
:100B8000C25008BF20F0010040EA0300704749004E
:100B900040EB0000013A28BFB0F5000FEDD2B0FAEB
:100BA00080FCACF1080CB2EB0C0200FA0CF0AABF0E
:100BB00000EBC25052421843BCBFD04018437047AC
:100BC00092F0000F81F4000106BF80F400000132B2
:100BD000013BB5E74FEA41037FEA226C18BF7FEA89
:100BE000236C21D092EA030F04D092F0000F08BFCB
:100BF0000846704790EA010F1CBF0020704712F0B2
:100C00007F4F04D1400028BF40F00040704712F1F0
:100C100000723CBF00F50000704700F0004343F055
:100C2000FE4040F4000070477FEA226216BF08468B
:100C30007FEA23630146420206BF5FEA412390EA4E
:100C4000010F40F4800070474FF0000304E000BF44
:100C500010F0004348BF40425FEA000C08BF7047F5
:100C600043F0964301464FF000001CE050EA0102B9
:100C700008BF70474FF000030AE000BF50EA0102CE
:100C800008BF704711F0004302D5404261EB4101BB
:100C90005FEA010C02BF84460146002043F0B643E0
:100CA00008BFA3F18053A3F50003BCFA8CF2083A05
:100CB000A3EBC25310DB01FA02FC634400FA02FC0E
:100CC000C2F12002BCF1004F20FA02F243EB020015
:100CD00008BF20F00100704702F1200201FA02FC77
:100CE000C2F1200250EA4C0021FA02F243EB02006A
:100CF00008BF20EADC7070474FF0FF0C1CEAD052AE
:100D00001EBF1CEAD15392EA0C0F93EA0C0F6FD06E
:100D10001A4480EA010C400218BF5FEA41211ED04C
:100D20004FF0006343EA501043EA5111A0FB013138
:100D30000CF00040B1F5000F3EBF490041EAD3710D
:100D40005B0040EA010062F17F02FD2A1DD8B3F189
:100D5000004F40EBC25008BF20F00100704790F0F8
:100D6000000F0CF0004C08BF49024CEA502040EA4A
:100D700051207F3AC2BFD2F1FF0340EAC250704710
:100D800040F400004FF00003013A5DDC12F1190F4E
:100D9000DCBF00F000407047C2F10002410021FAC0
:100DA00002F1C2F1200200FA02FC5FEA310040F1D8
:100DB000000053EA4C0308BF20EADC70704792F051
:100DC000000F00F0004C02BF400010F4000F013A89
:100DD000F9D040EA0C0093F0000F01F0004C02BF84
:100DE000490011F4000F013BF9D041EA0C018FE7F3
:100DF0000CEAD15392EA0C0F18BF93EA0C0F0AD0F9
:100E000030F0004C18BF31F0004CD8D180EA01001E
:100E100000F00040704790F0000F17BF90F0004FB7
:100E2000084691F0000F91F0004F14D092EA0C0F99
:100E300001D142020FD193EA0C0F03D14B0218BF2C
:100E4000084608D180EA010000F0004040F0FE4072
:100E500040F40000704740F0FE4040F4400070470E
:100E60004FF0FF0C1CEAD0521EBF1CEAD15392EA8D
:100E70000C0F93EA0C0F69D0A2EB030280EA010C7D
:100E800049024FEA402037D04FF0805343EA111116
:100E900043EA10130CF000408B4238BF5B0042F174
:100EA0007D024FF4000C8B4224BF5B1A40EA0C0019
:100EB000B3EB510F24BFA3EB510340EA5C00B3EB4B
:100EC000910F24BFA3EB910340EA9C00B3EBD10F39
:100ED00024BFA3EBD10340EADC001B0118BF5FEA8B
:100EE0001C1CE0D1FD2A3FF650AF8B4240EBC250B4
:100EF00008BF20F0010070470CF0004C4CEA502075
:100F00007F32C2BFD2F1FF0340EAC250704740F4C3
:100F100000004FF00003013A37E792F0000F00F0B5
:100F2000004C02BF400010F4000F013AF9D040EA33
:100F30000C0093F0000F01F0004C02BF490011F4C7
:100F4000000F013BF9D041EA0C0195E70CEAD153BF
:100F500092EA0C0F08D142027FF47DAF93EA0C0FA6
:100F60007FF470AF084676E793EA0C0F04D14B028A
:100F70003FF44CAF08466EE730F0004C18BF31F03C
:100F8000004CCAD130F000427FF45CAF31F0004336
:100F90007FF43CAF5FE700BF4FF0FF3C06E000BFCF
:100FA0004FF0010C02E000BF4FF0010C4DF804CDF2
:100FB0004FEA40024FEA41037FEA226C18BF7FEA02
:100FC000236C11D001B052EA530C18BF90EA010F04
:100FD00058BFB2EB030088BFC81738BF6FEAE17093
:100FE00018BF40F0010070477FEA226C02D15FEA2F
:100FF000402C05D17FEA236CE4D15FEA412CE1D09B
:101000005DF8040B704700BF844608466146FFE761
:101010000FB5FFF7C9FF002848BF10F1000F0FBD43
:101020004DF808EDFFF7F4FF0CBF012000205DF83C
:1010300008FB00BF4DF808EDFFF7EAFF34BF0120C1
:1010400000205DF808FB00BF4DF808EDFFF7E0FF5A
:1010500094BF012000205DF808FB00BF4DF808EDAB
:10106000FFF7D2FF94BF012000205DF808FB00BF0E
:101070004DF808EDFFF7C8FF34BF012000205DF8F0
:1010800008FB00BF4FEA4002B2F1FE4F0FD34FF012
:101090009E03B3EB12620DD94FEA002343F00043E5
:1010A00010F0004F23FA02F018BF404270474FF093
:1010B0000000704712F1610F01D1420205D110F01A
:1010C000004008BF6FF0004070474FF000007047CD
:1010D00042000ED2B2F1FE4F0BD34FF09E03B3EBA2
:1010E000126209D44FEA002343F0004323FA02F0CE
:1010F00070474FF00000704712F1610F01D14202BA
:1011000002D14FF0FF3070474FF00000704700BF32
:101110004FEA410C7FEA6C5C02D150EA013C0AD1F3
:101120004FEA430C7FEA6C5C02D152EA033C02D1E5
:101130004FF0000070474FF0010070474FEA410246
:1011400012F5001215D211D56FF47873B3EB625219
:1011500012D94FEAC12343F0004343EA505311F040
:10116000004F23FA02F018BF404270474FF00000D2
:10117000704750EA013005D111F0004008BF6FF010
:10118000004070474FF00000704700BF4FEA400238
:101190004FEA41037FEA226C02D15FEA402C08D17A
:1011A0007FEA236C02D15FEA412C02D14FF00000AC
:1011B00070474FF00100704710B50A4C402120469F
:1011C00000F0E6F82046802100F0E2F820464FF4D7
:1011D000006100F0DDF82046BDE810404FF480517A
:1011E00000F0D6B80008014038B504460D4603F0BB
:1011F0009FFFFF2C06D0032C03D8012D36D0022DE3
:1012000018D038BD012D1DD0022DFAD140211B4828
:1012100000F0BEF88021194800F0BAF84FF40061E0
:10122000164800F0B5F8BDE838404FF48051134837
:1012300000F0AEB8124B114833F81410BDE8384036
:1012400000F0A6B840210D4800F0A6F880210B4818
:1012500000F0A2F84FF40061084800F09DF8BDE8E6
:1012600038404FF48051054800F096B8044B0348CD
:1012700033F81410BDE8384000F08EB80008014083
:10128000B8BC0008704700BF704700BF704700BF80
:10129000084A08B51068084B084AA3FB00139B0CCA
:1012A0001360FFF7D1FC0649FFF726FD054B1860D8
:1012B00008BD00BF0800002083DE1B43E8000020BB
:1012C000000070429400002038B50F4C0F4DE368C9
:1012D000502243F020030021E360284608F0F0FB91
:1012E0000B4B28461A680B4908F0F2FB2B784BB1E0
:1012F00028462246536013681B06FCD510F8013FB0
:10130000002BF7D138BD00BF003801409800002005
:1013100008000020C0BC0008034B1A465860136840
:101320001B06FCD5704700BF0038014008B5094BCB
:101330004FF4007193F860300748012B0CBF002276
:10134000012207F0F9F8054A536C23F40043536473
:1013500008BD00BFAC2F0020000C0140002C014054
:1013600008B5084B4FF4007193F860200648012A35
:1013700018BF002207F0E0F8044A536C43F400431E
:10138000536408BDAC2F0020000C0140002C01402C
:10139000002207F0D1B800BF012207F0CDB800BF8E
:1013A00010B5064C4FF400512046FFF7F1FF2046E0
:1013B000BDE810404FF48041FFF7EABF0010014044
:1013C000044BD868DB68C0F340305B0448BF40F092
:1013D000020070470010014010B5064C4FF4005158
:1013E0002046FFF7D5FF2046BDE810404FF480416E
:1013F000FFF7CEBF0010014038B5124D6B783BB9F6
:10140000044630B142060FD4230614D400232B73B4
:1014100038BD4FF400510C48FFF7BAFF4FF480413C
:101420000948FFF7B5FFF1E74FF400510648FFF711
:10143000B3FF2306EAD54FF480410348FFF7ACFF22
:10144000E4E700BF283400200010014038B5144DF7
:101450002B78022B0BD0044603F06AFE6B7833B96D
:1014600064B1620604D4230613D400232B7338BD61
:101470004FF400510B48FFF78FFFF4E74FF4005192
:101480000848FFF785FF4FF480410648FFF780FFCB
:10149000EBE74FF480410348FFF77EFFE5E700BF2D
:1014A00028340020001001402DE9F84306F0B2FE78
:1014B0001A4806F023FF4CF2503006F0C9FE184AD5
:1014C000184C1369184F23F00203C4F100684FF65B
:1014D000FF75136108F57C4804F580693F1B10E037
:1014E00000230120A61E06F0B7FD32883919AA4252
:1014F00004F1040403D00023012006F0ADFD4C45A7
:1015000007D034F8042C08EB0401AA42E8D1A61E47
:10151000EBE7BDE8F84306F091BE00BF00FC000811
:1015200000200240F000002002FC000810B40D4C26
:101530002346C4F1006101F57C4104F580605A182E
:10154000127803F8012B8342F9D123780D2B06D0B2
:101550004FF48062FF21034810BC08F0B1BA10BC00
:10156000704700BFEC000020014B185C704700BFC3
:10157000EC000020014B1954704700BFEC00002024
:10158000F0B4D2B10023104F441E3C448E1811F821
:10159000015B5BB905EBD3138E42DBB204F8015F4C
:1015A000F5D110443B54F0BCFFF77EBF6B1C8E425C
:1015B00004F8015FDBB2EAD1F3E71346024F3B5474
:1015C000F0BCFFF771BF00BFEC000020F0B4F2B137
:1015D0000024104F4D1E3D44861815F8013F74B984
:1015E00000F8013B03EBD414B042E4B2F5D111444E
:1015F000785C001BB0FA80F0F0BC4009704700F83E
:10160000013B864203F10103DCB2E6D1EFE7144669
:10161000004FEDE7EC000020002108B54822074804
:1016200008F04EFA0020064904F084FD00B108BD20
:101630000720BDE8084003F097BD00BF3805002033
:10164000640500200149024806F0A4BB3C34002098
:1016500058050020000000002DE9F04F05468D4E92
:101660004C220021304699B008F02AFA8A4B07CB69
:101670001C889B78C6F80100C6F80510C6F809203A
:10168000A6F80D40F37395F800B0BBF1240F00F0FD
:10169000D28200228DF84320BBF1000F00F0B88405
:1016A0000A920027B846CDE90677DFF8F09108974F
:1016B000ABF14103192B00F2F383531C284611AA06
:1016C0000DF143018DF8433001F0AEFF002800F02A
:1016D000EC83DDF844A05046FEF79EFE08F0C2FF02
:1016E000FFF78CF9C4B22046FFF7B2FA0146504624
:1016F000FFF7F8F94946FFF7FFFAFEF78DFE08F00D
:1017000069FFFFF77BF9BBF1470F80B200F0C8809B
:10171000BBF14D0F40F08A80002840F0CE831E2C94
:1017200041D93E3CE3B2262B38D8262C36D8DFE808
:1017300014F09A02BE0235003500C3029F02350044
:1017400035003500350035003500350035003500F1
:1017500035003500350035003500350035003500E1
:1017600035003500350035003500350035003500D1
:101770003500350035003500350035003500A40250
:10178000079B002B40F0F586262C747040F0EF8309
:10179000A0F114039BB21E2B40F2A0831423184621
:1017A00019B0BDE8F08F1E2CF8D801A353F824F02F
:1017B000851C0008851C0008851C0008991C000871
:1017C000991C0008991C00089D170008511C00086E
:1017D000511C0008511C00089D1700089D170008A7
:1017E0009D1700089D1700089D1700089D17000809
:1017F0009D1700089D1700089D1700089D170008F9
:101800009D1700089D1700089D1700089D170008E8
:101810009D1700089D1700089D1700089D170008D8
:101820009D1700089D170008851C0008ABF1450BAB
:10183000BBF1150FB2D801A353F82BF0731E0008AB
:10184000151E00089D1700089D1700081D1E0008A2
:101850002D1E00083D1E00084D1E00089D170008A3
:10186000551E00089D170008611E0008691E00082B
:10187000C71D0008CF1D0008EB1D00089D170008BC
:101880009D1700089D170008031E0008911D000801
:10189000A91D0008EC040020380500200000C84203
:1018A0005E2C3FF67BAF01A353F824F081170008AC
:1018B0008117000881170008811700087F1D0008A4
:1018C0009D1700089D1700089D1700089D17000828
:1018D0009D170008CD1C00089D1700089D170008E3
:1018E0009D1700089D1700089D1700089D17000808
:1018F000F51C0008F51C0008F51C0008FD1C00087C
:10190000FD1C00089D1700089D1700089D17000882
:101910009D1700089D1700089D170008CD1C0008A2
:101920009D170008CD1C00089D1700089D17000892
:101930009D1700089D1700089D1700089D170008B7
:101940009D170008811700089D170008291A000834
:101950009D1700089D170008071D00089D17000827
:101960009D1700089D1700089D1700089D17000887
:10197000071D00089D1700089D1700089D17000807
:101980007F1D0008291D0008291D0008291D0008C9
:10199000291D0008291D0008291D00089D170008A1
:1019A000331D00089D1700089D1700089D170008AB
:1019B0009D1700089D1700089D1700089D17000837
:1019C0009D1700089D1700089D1700089D17000827
:1019D0009D1700089D1700089D1700089D17000817
:1019E0009D1700089D1700089D1700083F1D00085F
:1019F0009D1700089D1700089D1700089D170008F7
:101A00009D1700089D1700089D1700089D170008E6
:101A10009D170008711D0008711D0008CD1C0008ED
:101A2000C31C0008C31C00088023002840F0458226
:101A300018EA030F40F0508248EA03089DF843205B
:101A400015F802B0BBF1000F7FF432AE069B23B154
:101A5000079B002B08BF02230793BA0604D5BC4B93
:101A6000726A9A4200F367820A9B002B00F046825A
:101A7000FB0740F16B83F478012C0BD13069FEF742
:101A8000CBFCB1A3D3E90023FEF71EFDFEF7D6FF82
:101A90000A943061F80502D4AE4B1B693363347885
:101AA000042C00F0718296F805A0BAF1000F00F046
:101AB000A782BAF1010F40F05D8202234FF00009C6
:101AC0000525CDE90C9A9A460B93F378012B00F08B
:101AD0006B82079B032B00F05C829F4B18F4007F06
:101AE00093E8070012AB83E807000ED0F0790628D0
:101AF00000F23483974B9B79834206D012A904F0FD
:101B000019FB002800F0328534780A2C00F090820E
:101B10005C2C00F0E382079B032B22D0069A02B3D1
:101B20003379002B00F05A85D10740F1DC85352C44
:101B300000F00785874BB16B186AFEF7D5FF069B4F
:101B4000B0639B0700F1D885824B5B6AF363069B09
:101B50005A0740F1DB857F4B316C986AFEF7C4FF72
:101B600030641E2C00F06D85352C00F0F2841C2CA6
:101B700000F0F6847478502C40F0EF84069A002A26
:101B800040F0E4850A9B0E92002B00F0CC8227F0F7
:101B90002107079A0AB127F47C47327B22B17C06E1
:101BA00040F1438227F04007727B42B16B4A3A40D2
:101BB000002A00F03A8227F4003727F05007B27B62
:101BC0002AB117F4403F00F0308227F44037F27B0F
:101BD00042B1634A3A40002A00F0278227F40037D6
:101BE00027F04007002F40F0A283CDE91577179723
:101BF000002B00F0B38338F0490340F08C85337834
:101C0000352B02D0002B40F08685524A15A8117A58
:101C1000537A12690B4353498DF85C30169200F0E9
:101C200075FF034600287FF4BAAD4F4A4F4C07CAF0
:101C300084E80700B3E50022012195F803B0B270F3
:101C400071700322BBF1000F00F080820A9128E539
:101C5000082C00F07281092C40F07481002373720B
:101C60004FF40053E4E6012333734FF40043DFE6FF
:101C70000123B3734FF40043DAE60123F3734FF407
:101C80000043D5E6002C00F02281012C00F01281E7
:101C90004FF400633472CBE6042C00F05881052C1D
:101CA00040F05A810023B3724FF48053C0E6022300
:101CB00033734FF40043BBE6012373734FF40043C7
:101CC000B6E6C4F15E042023B470AEE6002840F00E
:101CD000DB80079B002B40F04C841C2C347000F000
:101CE000CD801E2C00F0CA805C2C00F0C780012340
:101CF00007939DE6113C0423747196E6C4F1150424
:101D00004023F47091E6079B002B40F03284312C85
:101D100000F027810A287FF441AD0122B27103222D
:101D20004FF48073079283E6363C4FF40073F471EE
:101D30007BE600287FF432AD4FF4806378E65023D1
:101D40007370022371E600BF666666666666394098
:101D5000809698003805002064050020500002009D
:101D600040000200EC04002024050020580500205B
:101D7000002840F0A4805A3C0823347158E61C2CFB
:101D8000347000F088801E2C00F0858001234CE622
:101D90004FF40064069BC6F83CA043F00203069390
:101DA00027420BD1274349E64FF48054069B274234
:101DB00043F00403C6F840A00693F3D01923184655
:101DC00019B0BDE8F08F8024C6F82CA0E8E74FF4E6
:101DD0008074C6F830A02742F0D150460021FFF7AA
:101DE00029F90028DED00423D9E45046B649FFF78C
:101DF0003FF9002840F0B08486F834404FF4007476
:101E0000E9E7069B4FF4806443F00103C6F838A06D
:101E10000693C5E70124C6F810A0DCE7089B02245E
:101E200043F00103C6F814A00893B9E7089B042403
:101E300043F00203C6F818A00893B1E7089B0824F2
:101E400043F00403C6F81CA00893A9E786F82040D5
:101E50001024A5E75046FFF715F920247062BAE771
:101E60004024C6F828A0B6E74FF40034C6F848A0CE
:101E700096E786F844404FF4803491E701230793B6
:101E8000204401233070D3E51C2C347005D01E2C67
:101E900003D05C2C11D10028F2D00A28F0D07DE4C8
:101EA0000123184619B0BDE8F08F0223184619B077
:101EB000BDE8F08F4FF40063BAE517236FE40A28FA
:101EC0007FF46CAC5A2C3FF469AC1023B0E50323CB
:101ED00033724FF40063ABE5152360E47B4A22FACA
:101EE00003F3D9077FF55AAC0222794B0792A3FB83
:101EF0000030C308763B7370134699E5B378012B25
:101F000000F01681734B5B780A93002B40F08A80B7
:101F1000FC0740F10782F378012B7FF4BBAD3069F9
:101F2000FEF77AFA66A3D3E90023FEF7CDFAFEF7AF
:101F300085FD3061AEE51B2331E4402373724FF41D
:101F4000005375E5802373724FF4005370E520232E
:101F5000B3724FF480536BE51023B3724FF4805388
:101F600066E50322B37107924FF4807360E50223A4
:101F700007935AE501234FF002099A46CDE90B3940
:101F8000002306250D93A0E579064ED527F04007DE
:101F900089E5B379012B7FF4A0AD069B042B3FF4B8
:101FA0009CAD2523FFF7FBBB069BDA070AD5B06B78
:101FB000FEF732FA42A3D3E90023FEF785FAFEF7D3
:101FC0003DFDB063069B9B070AD5F06BFEF724FA34
:101FD0003BA3D3E90023FEF777FAFEF72FFDF0636A
:101FE000069B58077FF575AD306CFEF715FA34A3E4
:101FF000D3E90023FEF768FAFEF720FD306468E5B8
:102000004FF0010902230325CDE90BA90D935CE5EF
:10201000B2785F46012AD846CDE907BBCDF818B0A3
:102020007FF470AF00230A9334E51C23FFF7B7BB9E
:10203000069B002B00F0958017F0500FF5D0B06A8A
:10204000FEF7EAF908F00EFBFEF7D8FCC3B2062B48
:1020500000F2848096F82020142A05D0022A7FF40A
:102060009DAB39063FF59AAB27F05007002B00F0E7
:102070005583013BDBB218460E93174904F05AF81A
:10208000002800F0738296F82030142B069B00F095
:10209000F583DA0744BFB36B7361069B9B0744BFAC
:1020A000F36BB361069B5C0701D5336CF361747805
:1020B000502C00F04B83079B022B55D00A9B63E505
:1020C000666666666666394000007F43010410401C
:1020D000CDCCCCCC3805002000050020069B002B81
:1020E0003FD0DB0700F11481994B9B6BB363069BD8
:1020F0009C0700F11F81964BDB6BF363069B58072F
:10210000C3F3800225D5924B14991C46986AFEF7BA
:10211000E9FC316CFEF7E6FC616CFEF7E3FC0023A2
:1021200030640E93C3E727F4487727F0010730E5C2
:10213000079B022B7FF476AF7378502B3FF4AAAC49
:10214000002B3FF4A7ACFD073FF5A4AC1623FFF727
:1021500026BB7F4B0E921B6C3364A8E71D23FFF751
:102160001EBB1A23FFF71BBB002C00F020820021AE
:102170003069FEF755FF0028E8D1032C0BD000F2A0
:102180006E82012C00F01382022C0A9B7FF4FCACBF
:1021900043F004030A93069B002BE2D02B4200F08D
:1021A0006F840B9B6A4C03F10E02083354F8231022
:1021B00056F82200FEF796FC034609F1080209F1E1
:1021C0000E0156F8210054F822100F93FEF78AFCF6
:1021D00017F0800383461A4600F0C4830C225D4941
:1021E00004F1200007F05EFC002800F00D84F37875
:1021F000012B0AD1F06AFEF70FF953A3D3E90023AC
:10220000FEF762F9FEF71AFCF062F06AFEF704F9D5
:1022100004460D460022504BFEF756F922462B4647
:10222000FEF752F90D460F9904460846FEF764FD85
:10223000FEF7F2F802460B4620462946FDF78CFFD2
:1022400004460D4658465946FEF756FDFEF7E4F89B
:1022500002460B4620462946FDF77EFFFEF7EEFBC1
:1022600000210446FEF7E6FE002840F00C842046DC
:10227000FEF7D2F808F0E8FA04460D460F985946E2
:1022800001F0C6FAFEF7C8F805F100450B46024614
:1022900029462046FEF742FAFEF7D0FB7378F56A2E
:1022A000032B04464FF0000108BF00F1004428460C
:1022B000FEF7C0FE20B105F1004504F10044F562CF
:1022C00059462046FEF718FD01460F98FEF70AFC16
:1022D0004FF07C51FEF710FD0B9D0F99043506EB76
:1022E000850568602046FEF707FD5946FEF7FCFBB2
:1022F0004FF07C51FEF700FD09F104090A9B06EB43
:10230000890927F08007C9F8040003F001033BE4C2
:102310000F4B1299186AFEF7E5FBB16BFEF7E2FB73
:10232000B063E4E60A4B5B693361FFF7B3BB242378
:10233000FFF735BA064B1399586AFEF7D3FBF16BDA
:10234000FEF7D0FBF063D9E66666666666663940DE
:10235000380500202405002000001040984B93F819
:102360004830980700F1A881964B5C7A0A9B03F0ED
:1023700040059449726AB378CA614B7013B108235F
:102380008DF85C308F4A33691769D6F8308038464B
:10239000414653611593FEF743FE002800F0EC80A0
:1023A0000A9B9B0600F1E880B8460DB9CDF858802D
:1023B000B07A96F83430834DA0422B7604D016992B
:1023C00004F006FAB47A6C727E4A9DF85C30127A98
:1023D000707A234382428DF85C3000F0E680FFF78C
:1023E00035F8737A002B40F0DA80764A13729DF844
:1023F0005C3032788DF85C30042A00F07482F37817
:10240000704972798B70079B0A71032B00F0A781CA
:102410006C4CF379A2799A4208D012AAA37104F104
:102420002C0307CA83E8070005F0AAFC3378327949
:102430006449282BCA7016D8092B22D90A3B1E2BB7
:102440001FD8DFE803F06C1E1E1E1E1E1E1E1E1E61
:102450001E1E1E1E1E1E1E1E571E571E1E1E1E1E2A
:102460001E1E521E4D005C2B00F05E82662B08D1B2
:102470000023554A1360C2E90133A2F1380105F087
:102480007FFC73784F4A502B137003D0079A022AAF
:1024900000F0C881337A4B4AD371002B40F084811D
:1024A000347B002C40F07481737B002B40F0AC81B6
:1024B000B37B002B40F06681F37B002B3FF46FA9C8
:1024C000B06AFDF7A9FF08F0CDF8FEF797FA3F498B
:1024D000C0B203F0E3FF01F031FB0023FFF75FB967
:1024E00007203B4903F050FDCBE70620384903F0B5
:1024F0004BFDC6E79DF85C3043F001038DF85C307E
:10250000079B002B40F0B782324D314C284615A96D
:1025100000F0B6FD95E8070084E80700B1E70E9DDE
:102520002C4C2846214603F02FFD264B9B79AB42CD
:10253000A7D194E80700284B83E8070005F020FCAA
:102540009FE7069B9B0740F1C381069B590740F11B
:10255000DD807478012C00F2FC8000230E93AAE544
:1025600006201C4903F0E6FD002870D10723FFF781
:1025700016B91823FFF713B96CB10A9B18060AD4D1
:10258000002D00F0DD812046002104F021F90D4BE3
:10259000D6F830805C7A0B4BC3F8108005E7094809
:1025A0009DF85C20017A0B430372134321E7069BDD
:1025B000002B079B08BF002307930A9BFFF7E4BA91
:1025C000AC2F0020380500207005002034050020C5
:1025D0005805002000050020640500201346DA0796
:1025E00040F18981352C08D09E4B1299986BFEF7EB
:1025F0007BFAB16BFEF778FAB063069B9B0740F15C
:102600007681352C08D0974B1399D86BFEF76CFA6E
:10261000F16BFEF769FAF063069B580776D5352C07
:1026200097D0904B1498196CFEF75EFA316CFEF758
:102630005BFA8C4B596CFEF757FA1E2C30647FF412
:1026400096AA0720884903F075FD00288ED0069AC7
:10265000002A67D10A9B0E920792FFF795BA04F100
:102660007403DBB2032B3FF629ADA4F18C03032BDB
:102670003FF624ADDFE803F0060206020A9B43F0B2
:1026800010030A9304F17203DBB2012B03D80A9BF7
:1026900043F008030A93069B002B3FF462AD0C2223
:1026A0007249734807F0FEF9002800F0AD810A9BDB
:1026B00003F00103FFF768BA7378013B022B03D9DB
:1026C0000A9B43F040030A93069B1BB1079B022B16
:1026D00000F03F81634B5C7A102C00F014810A9B60
:1026E00003F0400545E65F4B92071B6AB36340F178
:1026F000EF80352C3FF429AF5A4BF16B586AFEF747
:10270000F3F9069BF06359073FF525AA554B9B6AE1
:102710003364FFF726BA1023FFF741B8F379184660
:102720000E93AAE4D10702D44E4B1B6A7361069B39
:102730009A0702D44B4B5B6AB361069B5B0702D4DA
:10274000484B9B6AF36100230E93B0E41F23FFF70D
:1027500026B81E23FFF723B82623FFF720B8B37946
:102760004B71002B00F0CB80346C3E4B2146586CF3
:10277000FEF756FC00287FF44BAE3A4B5C6405F044
:10278000FFFA45E63B4996F84400FEF77DFD93E6E7
:10279000B06AFDF741FE07F065FFFEF72FF921460D
:1027A000C0B2FEF721FD7FE602F0C2FC2D4BDB79C3
:1027B000032B00F02C8146F26442002401206421A6
:1027C0002D4B284D1A811A782C71022AEC70AC71AD
:1027D0002C812880997210D0204605F12C0103F03D
:1027E000A9FC00283FF4C2AE05F0CAFA2046002139
:1027F00003F056FF2046FEF7FFFD082002F0E2FC42
:102800000023184AD3714BE6B06AFDF705FE07F0C6
:1028100029FFFEF7F3F896F82010164AC0B2FEF72B
:1028200035FD45E6012B00F01F81002B00F00F81E4
:10283000023B012B40F2F6809DF85C300B4D43F0DB
:10284000040328460A9A15A98DF85C3000F054FE5E
:10285000002840F01B81064C95E8070084E807003B
:1028600018E600BF380500200005002024050020E0
:10287000580500203405002028340020D80708D54A
:102880009B4B996B186AFEF72DF9B16BFEF72AF98D
:102890007061069B990708D5954BD96B586AFEF76E
:1028A00021F9F16BFEF71EF9B061069B5A077FF51F
:1028B000FEAB8F4B1C46196C986AFEF713F9316C0E
:1028C000FEF710F9616CFEF70DF9F061FFF7EFBB51
:1028D000874B5B6AF363069B58077FF517AF352C70
:1028E0007FF439A935E6B06A00F0C6FD87E5804B74
:1028F0005B6AF36390E67E4B1B6AB3637DE600235D
:102900001C46336431E77A4B1B78013B022B0A9B50
:1029100003F0400510D859067FF52BAD43F0200396
:102920000A9303F0400524E5724B734A07CA83E813
:10293000070005F025FAA4E55A063FF51AADEDE7C4
:102940004146204603F044FF694BD6F830805C7A5C
:1029500021E60A9B43F080030A9303F04005644B91
:102960005C7A06E5089B2B4200F0B180F37827F0F3
:102970000E07012B00F0928009F1040506EB850596
:1029800069685846FEF7AEF881460B9C0F980434F0
:1029900006EB84046168FEF7A5F8494600F038FFAD
:1029A0000346696860681C4600F032FF0546204611
:1029B0002946F562FEF796F820F000442046FDF720
:1029C0002BFD45A3D3E9002383468C46CDE908BC03
:1029D000FEF70AF800283FF46AAE20464FF07C511B
:1029E000FEF746FB80B92846FDF716FD3CA3D3E968
:1029F0000023FDF769FD02460B46DDE90801FDF7FE
:102A0000F3FF00283FF453AE2123FEF7C8BE3B4B33
:102A10001B78022B3FF4F4AE082005F005FA02F013
:102A2000C9FAEDE60A9B344DC3F3800304930D9B72
:102A3000334CF76A03930C9B2246CDE901A3284649
:102A400015A9A5F12403009700F04EFB04E79DF8BB
:102A50005C30294D43F00103284615A98DF85C3000
:102A6000274C00F00DFBF7E6234D15A9284600F092
:102A700007FB234CF0E6204815A900F001FB43E5D5
:102A80002023FEF78CBE2223FEF789BE01287FF4A7
:102A900001AD1C491A4805F07DF9FBE415461A4CB6
:102AA000089B2B4113F0010F05F101050AD0606965
:102AB000FDF7B2FC0CA3D3E90023FDF705FDFDF7FC
:102AC000BDFF6061032D04F10404E9D154E7232321
:102AD000FEF765BEAFF300807B14AE47E17A743F2A
:102AE000FCA9F1D24D62503F666666666666394063
:102AF000380500207005002024050020283400201F
:102B0000580500203C340020EC04002070B5054638
:102B10000B46027A086942F00402134928602A72BF
:102B200091F8482003F13804930603D5204605F0B8
:102B30004FF9A8B90D4E2046294600F0A1FA347885
:102B400014B10024204670BD01F040F80028F8D0F0
:102B50002023337004F098F903F0D8FE204670BDAE
:102B60000F24204670BD00BFAC2F00202834002069
:102B7000074B93F848301B0708D44FF48072054B7D
:102B8000C3F88420BFF34F8FBFF36F8F704700BF30
:102B9000AC2F002000E100E04FF48072034BC3F83B
:102BA0008420BFF34F8FBFF36F8F704700E100E0C9
:102BB0000F4B104A9B6892F848209BB2520658BFB0
:102BC00083F4E0538BB10C4A10885188034218BF3C
:102BD0000120928808BF00200B4218BF40F002007D
:102BE000134203D040F0040070471846704700BFFE
:102BF000000C0140AC2F0020D8BC000808B5144BD5
:102C00001B78012B02D0134B1B7803B108BD124B6C
:102C1000124A9B6892F848209BB2520658BF83F430
:102C2000E053002BF2D00E4A10885188034214BFA3
:102C3000012000200B4204D19288134201D10028C8
:102C4000E4D000F0C1FCBDE80840012005F000B967
:102C50002834002056340020000C0140AC2F002006
:102C6000D8BC00082DE9F04FB54E8DB0737813B184
:102C70000DB0BDE8F08F82460621B24A1AF0010F6E
:102C800010689288CDE9073306930490ADF81420BC
:102C90008DF820100AF0010700F0E180AA4C606A6C
:102CA000FDF7BAFB00224FF04043FDF70DFC002278
:102CB000002380468946FDF779FE002800F0AD81AB
:102CC000CAF340031AF0020F4FF00005029340F0E0
:102CD000CF80CAF380031AF0040F019313D0E06A87
:102CE000FDF79AFB00224FF04043FDF7EDFB8046D5
:102CF00089462846FDF790FB42464B46FDF774FE99
:102D0000002800F0848104234FF001080093FBB2F7
:102D1000CDF80CA0AA4645469846D4F850B0DFF846
:102D200040928A4909A805F035F8B8F1000F00F083
:102D30004181002194F84920844BD707196040F164
:102D40004281002D40F04281CDF824A0404602226D
:102D5000BDF81070029B83B1002094F849107B4BA2
:102D60005860880740F13D81002D40F03D81CDF84D
:102D700028A01046BDF812100F43019B8BB1002113
:102D800094F84920714B013099605107C0B240F16D
:102D90002181002D40F02181CDF82CA0BDF8143008
:102DA0001F43FDF751FF07F0B1FDF780014658467C
:102DB000FDF7A2FF034606A909A8069301F040F813
:102DC0000423337104F060F803F0A0FD002D6BD1F3
:102DD00004F05AF899F8003013F0340F40F09D8059
:102DE0007807F3D103F07EFFB4F8540000F0F0FC54
:102DF00095F0010500F0E2805549A06DFDF77CFFDC
:102E00008246D4F84CB0009B5A1E12F0FF03009388
:102E100087D11D46DDF80CA04B4F4AFA05F3D907C0
:102E200013D594F849302B41DA0740F1E180A16DC8
:102E3000786AFDF759FE3968FDF75EFFFDF7ECFA99
:102E400007F07AFB414B43F825000135032D07F1CC
:102E50000407E2D1002333710DB0BDE8F08F0025E7
:102E6000394CCAF340031AF0020F02933FF431AF1A
:102E7000A06AFDF7D1FA00224FF04043FDF724FB92
:102E8000804628468946FDF7C7FA02460B4640466B
:102E90004946FDF78BFD00287FF41BAF40464946AD
:102EA000FDF7CCFD054614E72A4B94F848209B68B3
:102EB00052069BB258BF83F4E0532BB326490A88CD
:102EC0004988134214BF012200220B42224918BF35
:102ED00042F0020289880B42BDF8103018BF42F060
:102EE00004021F4202D0D00748BF9F43BDF81230F2
:102EF0001F4202D0910748BF9F43BDF814301F42C4
:102F000002D0920818BF9F43F78003F0BDFF99F8E5
:102F1000003013F0340F3FF463AF99F80030DA0655
:102F2000DFB270D4BB061DD40DB37B077BD40B4B33
:102F30001B78002B7BD1042004F080FF52E700BFF8
:102F400028340020E0BC0008AC2F00203C340020D6
:102F50000000A040000C0140D8BC000856340020FE
:102F600058340020072004F073FF002DDDD1324BD0
:102F700094F848209B6857069BB258BF83F4E053EF
:102F8000002BD4D02D490A884988134214BF01224E
:102F900000220B42294918BF42F0020289880B42E5
:102FA000039B18BF42F004021342C0D0082004F073
:102FB0004FFFBCE7404601224746CBE6D4F858A075
:102FC000D4F850B01FE7002D7FF4BEAE0AF10042E6
:102FD0000992BBE6002D7FF4DFAE0AF100430B93AC
:102FE000DCE6002D7FF4C3AE0AF100410A91C0E691
:102FF000A06D396800F10040FDF77EFEFDF70CFA88
:1030000007F09AFA1EE7062004F022FF8AE74046FE
:103010004946FDF713FD054675E640464946FDF76E
:103020000DFD05461DE7092004F012FF7FE700F0C3
:10303000CBFA01F0BFFF1BE6000C0140D8BC000832
:1030400010B504F0C5FE78B101230C4C2078E37074
:1030500008280AD104F0E8FE01E023782BB101F042
:10306000A9FF6378002BF8D010BD00F0ADFA022064
:1030700004F0EEFEBDE8104001F09CBF28340020B3
:10308000F8B5174E0F4696F8483005469906154C88
:1030900004D52378202B0AD0FFF7D2FF2378022B08
:1030A00005D1F8BD00F0BEFD38B101F069FC01F0BA
:1030B00081FF6378002BF5D0F3E72846394600F00E
:1030C000BFFE0028EDD196F848309A07E9D53B7A43
:1030D000DB06E6D579681020BDE8F84003F078BB40
:1030E000AC2F0020283400202DE9F04F1E460B465F
:1030F0008FB09DF86490824656F8294052F8291006
:10310000204693460193FDF7EFFC9DF868708046DA
:1031100056F827505BF8271005902846FDF7E4FC89
:10312000034641465AF8290098460693CDF834A044
:10313000FDF7D8FC0D9A4146804652F82700FDF76E
:10314000D1FC04F10044824641462046FDF7D4FDFF
:1031500005F10045514602902846FDF7CDFD029B42
:1031600001461846FDF7C0FC0346514620469A46E4
:10317000FDF7C2FD414680462846FDF7BDFD0146EC
:103180004046FDF7AFFC9DF86C30514607939DF823
:103190007030DDF86080029307F0B6FB0BEB89031B
:1031A000039306EB89030A9306EB87030B930BEB60
:1031B00087030493029B8246002B00F01D81FDF7DC
:1031C0002BF9A1A3D3E9002306460F46FDF702FC25
:1031D00068B19FA3D3E9002330463946FCF7BCFF12
:1031E000FDF72CFC8246FDF717F906460F469E4B6D
:1031F0004146D3F83C904046FDF776FC4946FDF742
:1032000071FC4946FDF778FD07F080FB0022974BE3
:10321000814639463046FDF757F9064640460F4687
:10322000FDF7FAF802460B4630463946FDF74CF9F1
:103230000746484621F00046FDF7EEF80B460246E9
:1032400031463846FDF76AFA07F0FAF8FDF7D6FB83
:1032500083B20293002B00F0C880019B02981F7A72
:103260003B0700F1DD80FDF7F3FC06463146504692
:10327000FDF7F6FD0346079A0D985BF8221050F80B
:1032800022001F460C93FDF72DFC3146FDF7E8FDAB
:10329000394681463846FDF72FFD01464FF0804004
:1032A000FDF720FC80463846FDF7B6F86AA3D3E95F
:1032B0000023FDF709F9064640460F46FDF7ACF836
:1032C00000226B4BFCF74AFF02460B46304639465C
:1032D000FDF7FAF8FDF7B2FB4FF07C51824640460D
:1032E000FDF70AFD029B079A012B0BEB8208079062
:1032F0007BD00126002740E021465046FDF7FCFC2C
:10330000294608900798FDF7F7FC089B01461846E8
:10331000FDF7EAFB0346214607981C46FDF7ECFC47
:10332000294605465046FDF7E7FC01462846FDF7CD
:10333000D9FB254604460137FFB205992046FDF723
:10334000D3FB039B069918602846FDF7CDFB049B31
:1033500049461860D8F80000FDF7C6FB0199C8F887
:1033600000005846FFF78CFE424B01365B78B2B244
:10337000002B63D1029B934237D90B2FBCD9304627
:10338000FDF766FC0C99FDF7B7FC044607F0E2F97F
:103390000546204607F01AFA0A9B04461F6829468C
:1033A00007F100473846FDF7A7FC0B9B21461B6839
:1033B000099018460893FDF79FFC099A01461046AC
:1033C000FDF792FB0246214638461446FDF794FC71
:1033D000089B294605461846FDF78EFC01462846FF
:1033E000FDF780FB00270546A7E701990D980FB070
:1033F000BDE8F04FFFF744BEFDF70EF818A3D3E980
:10340000002306460F46FDF7DBFA00283FF4EFAE37
:103410000FA3D3E9002330463946FCF79FFEDFE6D1
:10342000FDF716FC0646019A31461068FDF764FC6C
:10343000019B27F0080718601F7217E70FB0BDE85F
:10344000F08F00BFAFF300808DEDB5A0F7C6A0BE32
:10345000182D4454FB2119404BDA7D5C5555C53F6E
:103460008DEDB5A0F7C6A03EAC2F00200000E03FD8
:103470000000104028340020074B1B78022B09D095
:1034800010B5044601F054FE2046BDE8104000216E
:1034900000F064B9704700BF2834002010B504461E
:1034A000FFF77AFB44B12046FFF7DCFB01F082FD19
:1034B0000F4B5B7863B110BD0420FFF7D3FB0320F3
:1034C000FFF7D0FB01F076FD094B5B78002BF2D1C2
:1034D000FEF7B8F800F0C8FE4FF4E052054B282084
:1034E0005A6104F0ABFDBDE81040282004F080BD17
:1034F00028340020000401402DE9F0412E4C2378AF
:10350000022B27D007460D46164601F011FE94F80F
:103510000180B8F1000F1AD1C6F3C00084F805800D
:1035200001F0E4F901F0F6F980BB29463846FFF7CF
:10353000A7FD0123214D02202B7004F075FC01E052
:10354000237853B101F036FD6378002BF8D00220C8
:10355000BDE8F0810020BDE8F0812B78012B1ED062
:10356000012363710020287001F0C0F901F022FDF1
:1035700003F0B8FB00F0E2FA00F076FE02F0AAF8E1
:103580006079003818BF0120BDE8F081042004F004
:103590005FFC01F00FFD404601F0A8F9D7E7F30604
:1035A00005D5074A074B07CA83E80700DAE7052075
:1035B00004F04EFCD6E700BF28340020543400202D
:1035C0003C3400204834002008B5144B1B78DB063F
:1035D00000D508BD102004F027FC02F0F3FFFDF732
:1035E000FBFE0F4B1A781B7902F02C0103F0060347
:1035F0000B43EED0042A06D10A4B1B7853B1BDE829
:10360000084003F0C7B9032004F022FCBDE80840DD
:1036100003F0C0B9062004F01BFCF0E7583400208A
:1036200028340020563400202DE9F04F8A460978CE
:103630008146435C93462D2B83B0014466D02B2BEF
:103640001DD000224C1C009200210A460D4608465F
:103650000CE00132D2B2082A16D809B1013D6DB290
:1036600000EB800003EB400014F8013B303BDBB281
:10367000092BEED9FE2B0CD159B90121F4E7002317
:103680008C1C00934B78DFE70029EDD101356DB23A
:10369000EAE7002A36D0FDF7D7FA00210190FDF7BE
:1036A000BFFC019B08BB691C1CDA27A7D7E9006790
:1036B000A8461846FCF7B0FE08F1020832463B4621
:1036C000FCF702FF4FFA88F8FDF7B8F9B8F1FF3FB1
:1036D000F0DB0346EDB2C5F1FE0202F0FE02154436
:1036E00002356DB26A1C22D0ADB9009A12B103F155
:1036F000004003460122A4EB0904013CCBF8003052
:103700008AF80040104603B0BDE8F08F01224B78E4
:103710008C1C009298E718460F4E3146FDF7ECFAE4
:103720006B1E13F0FF0F5DB2F7D10346DDE71846BD
:10373000FCF772FE06A3D3E90023FCF7C5FEFDF7F4
:103740007DF90346D1E700BF7B14AE47E17A843FA1
:103750009A9999999999B93F0000204170B50D4601
:103760001949FDF7C9FAFCF757FE06F0EDFDFDF724
:1037700045F980B2A8B1441EA4B29DB14FF6FF76C0
:10378000124D0BE001F006F9AB789B0709D4013C20
:103790003220A4B204F0D0FBB44202D06B78002BEC
:1037A000F0D070BD4FF6FF76084D08E0013C01F007
:1037B00001FCA4B2322004F0BFFBB442F1D06B781C
:1037C000002BF3D070BD00BF0000A04128340020C2
:1037D000C8B130B44FF6FF75411E0B4C0B4889B28F
:1037E0002368A0FB03C2B3F57A7F4FEA921204D399
:1037F000002300BF01339A42FBD8013989B2A942A4
:10380000EED130BC7047704708000020D34D6210E5
:1038100010B50C460146FDF76FFA214604460846EE
:10382000FDF76AFA01462046FDF75EF9BDE8104053
:1038300007F06CB870B50568044600212846FDF70E
:10384000EFFB002841D129462846FDF755FA002113
:10385000FDF74AF90546666800213046FDF7E0FBB2
:1038600040B931463046FDF747FA01462846FDF794
:103870003BF90546A66800213046FDF7D1FB40B96B
:1038800031463046FDF738FA01462846FDF72CF957
:103890000546284607F03AF806464FF07E50314676
:1038A000FDF7DEFA054620682946FDF725FA294688
:1038B00020606068FDF720FA29466060A068FDF787
:1038C0001BFA03463046A36070BD0025C3E700BF66
:1038D000F8B50D680C46064600212846FDF7A0FB0A
:1038E00070BB29463068FDF7BBFA20F0004528463A
:1038F0001749FDF7BDFB18BB676800213846FDF787
:103900008FFB50B939467068FDF7AAFA20F00047DE
:1039100039462846FDF78EFBB8B1A4680021204641
:10392000FDF77EFB50B92146B068FDF799FA20F00B
:10393000004420462946FDF79BFB18B12846F8BDF8
:10394000034DD9E725462846F8BD3D46E5E700BFCB
:10395000FFFF7F7F2DE9F04F744B83B01B780193FD
:10396000002B00F0BE805C1EE4B2714B1E78A642B4
:1039700000F0B48034276F4D07FB0457F969D7F87E
:1039800018800846FDF7B0F8396AFDF7B5F9074623
:1039900040463946FDF74EFB002800F0B580342341
:1039A00003FB0453C3F81480002C00F09C80631EBA
:1039B0005FFA83FA564500F09B80342257469046C2
:1039C00002FB045427E0DFB25B4B08FB09591B786C
:1039D000BB422ED0D9F818A0D9F814005146FDF7F3
:1039E0001FFBB0B9D9F81C100846FDF77DF8D9F8CF
:1039F0002010FDF781F9DBF81410FDF775F8834608
:103A000050465946FDF734FB002800F08680C9F87F
:103A100014B0B74212D0A346B94608FB07547B1E28
:103A2000002FD0D1C727444B08FB09591B78BB4254
:103A3000D0D103F013FA3E4B1E78CBE73B4B1B78FB
:103A40000193741CE4B2C82C08BF00244FF0340A60
:103A5000019B0AFB065B9C4240D04FF00009CDF869
:103A600000A0009BDBF814A003FB0458D8F81470E6
:103A700050463946FDF7DEFAB8B1DBF81C100846AF
:103A8000FDF732F8DBF82010FDF736F95146FDF767
:103A90002BF8834638465946FDF7EAFA28B15F46C7
:103AA00026464FF00109C8F814B0009B394603FBC5
:103AB00004539869FDF7B4FA631C002818BF264622
:103AC000DCB218BF4FF00109C82C019B28D09C42E2
:103AD00029D1B9F1000F01D0154B1E7003B0BDE81C
:103AE000F08FC72441E74FF0C70A56457FF465AF12
:103AF000114B1B78B342A4D103F0B0F90B4B1B78E8
:103B000001930B4B1E789CE73423B84603FB045308
:103B1000C3F81480002CE6D049E7C9F814A078E770
:103B2000002BD6D00024C3469BE700BF202E0020E8
:103B3000212E002080050020222E002000230120BD
:103B400030B4094A0949C2E900330B70C2E90233B3
:103B5000C2E904330649074D074C936108702B7086
:103B6000237030BC704700BF242E0020222E00207E
:103B7000232E0020202E0020212E00200A490B4B4E
:103B80000A781B7893420DD0531CDBB2C82B08BFB8
:103B9000002310B406480B700478944208BF0370E9
:103BA00010BC7047704700BF222E0020202E00203E
:103BB000212E00203420034A034B127800FB0230F0
:103BC000704700BF202E002080050020054B064ACC
:103BD0001B7812789A421DBF3422044802FB03006E
:103BE00000207047222E0020202E0020800500207B
:103BF000094B0A4A1B7812780133DBB2C82B08BF85
:103C000000239A4205D03421054A01FB0323586959
:103C100070470020704700BF222E0020202E002079
:103C200080050020044A054B10781B78C01AB0FAB2
:103C300080F04009704700BF222E0020232E002074
:103C4000F8B5437CC46ADA0721D5254B587AFCF7CE
:103C5000D1FB21A3D3E90023FCF736FC0246204622
:103C60000D461446FCF7D8FB02460B462046294673
:103C7000FCF72AFCFCF7E2FE04464FF07E5120469A
:103C8000FDF7F6F908B94FF07E542046F8BD5B0702
:103C9000054616D4124B187AFCF7ACFB0EA3D3E9F9
:103CA0000023FCF711FC064620460F46FCF7B4FB48
:103CB00002460B4630463946FCF706FCFCF7BEFED2
:103CC0000446AD6A21462846FDF7B4F90028D4D051
:103CD0002C46D2E7AFF300807B14AE47E17A843FF5
:103CE00028340020000000002DE9F04F4E4A4F4BD1
:103CF00014781B7885B09C42019300F087804C4B70
:103D00004FF0340A1A7A5B7A4FF07E57494EDFF84B
:103D10002CB10392029313E031463046FCF7ECFFDE
:103D2000064640463146FDF785F900283FD101346B
:103D3000E4B2C82C019BAE6140D09C4268D04E4694
:103D40000AFB04B56B7CD5F82C90DA0739D50298BC
:103D5000FCF750FB32A3D3E90023FCF7B5FB024686
:103D6000484690468946FCF757FB02460B464046BC
:103D70004946FCF7A9FBFCF761FE814639464846F7
:103D8000FDF776F900B9B94631464846FDF770F9B6
:103D9000D5F824800028BFD149464846FCF7ACFF3F
:103DA000064640463146FDF745F90028BFD00134AC
:103DB000E4B2C82C019BC5F81880BED143B30024DF
:103DC000BDE75B0716D40398FCF714FB14A3D3E9F3
:103DD0000023FCF779FB0246484690468946FCF7EB
:103DE0001BFB02460B4640464946FCF76DFBFCF7C1
:103DF00025FE81460AFB04B3D3F828804946404695
:103E0000FDF718F90028B9D0C146B7E7DFF82490CC
:103E1000094BC3F8189005B0BDE8F08FAFF30080F0
:103E20007B14AE47E17A843F222E0020202E002012
:103E300028340020FFFF7F7F242E002080050020F3
:103E400034222DE9F04F8C4B07461B788B4893B0FA
:103E5000039302FB03030D461C46184605910021FF
:103E6000049305F02DFE2A7A6968930762744CBFAB
:103E7000834A844A09AD216307CADDE9033885E82E
:103E8000070034261A467D4B043F06FB02363B46AC
:103E90007D4A2F464FF0000B15461A467B4C0DF11C
:103EA000180A0DF1300952F8041F2068CDE90122EB
:103EB000FCF722FFFCF7B0FA06F03EFB57F8043B94
:103EC0004AF8040BC01A80EAE071A1EBE07148F8EF
:103ED000041BF3688B4238BF0B46F3600193FCF779
:103EE000B7FE54F8041BFCF7BBFF594649F8040B16
:103EF000FDF7A0F8DDE9013218B1317C28780143E3
:103F0000317463490235A142CDD11BB9184613B0B3
:103F1000BDE8F08F0CA8FFF78DFC039A34241146FE
:103F20000346564A5B4804FB01240CA92362FFF7B1
:103F3000CFFC03460CA95648E361FFF7C9FC657C3A
:103F4000A062EF0700F18D80059B2E071968E162E2
:103F500000F18480504B484A1B7812789A4202D074
:103F6000AC0740F1A180039A34231146434A03FB76
:103F7000012300225A615A62039A342311463F4AB0
:103F800003FB01235A7C90076DD4D107DD6A00F151
:103F9000D380530717D4414B187AFCF72BFA34A37C
:103FA000D3E90023FCF790FA0246284614460D4652
:103FB000FCF732FA02460B4620462946FCF784FA03
:103FC000FCF73CFD0546039A342311462B4A03FBBC
:103FD00001239C6A29462046FDF72CF800B12546AE
:103FE0004FF07E512846FDF743F808B94FF07E5553
:103FF000244C049BA66929463046D3F82480FDF75B
:1040000019F8002800F0B48031463046FCF774FE01
:10401000064631464046FDF70DF8049B002840F067
:10402000A4809E611E4A144811781E4E4B1CDBB2C0
:10403000C82B08BF002313700CAB017093E8070076
:1040400006ABA56186E8070093E8070084E807004F
:10405000FFF780FC012013B0BDE8F08F206AFCF769
:104060004BFEE06276E7012013B0BDE8F08F00BFA1
:104070007B14AE47E17A843F202E0020800500208B
:104080003C340020242E0020D0BC0008AC2F00209F
:10409000B82F0020A02F0020222E0020283400203E
:1040A000232E0020302E0020674C0C9ED4F80C806C
:1040B00030464146FCF720FE01460020FCF712FD89
:1040C000414605463046FCF70DFD0346D4F8108006
:1040D0000D9E414630460F93FCF70EFE01462846E2
:1040E000FCF700FD414605463046FCF7FBFC034665
:1040F00064690E9E214630461093FCF7F3FC03469C
:10410000314620461193FCF7F7FD01462846FCF79F
:10411000E9FCFCF781F946A3D3E9002304460D46E8
:10412000FCF762FC50B3039A34231146474A03FB61
:10413000012300225A621FE7454B587AFCF75AF9CF
:104140003DA3D3E90023FCF7BFF9024628461446F5
:104150000D46FCF761F902460B4620462946FCF75E
:10416000B3F9FCF76BFC05463AE7C3F8188059E74A
:1041700029462846FCF7C0FD06464AE7204630A3FC
:10418000D3E900232946FCF711FC40B1039A3423FC
:1041900011462E4A03FB01232E4A5A62ECE60FA871
:1041A000FFF748FB0FA92C48FFF792FB22462B464E
:1041B00006462A490020FBF7CFFF0022284BFCF7D8
:1041C00083F9FCF73BFC06F0A1FB0546254B304686
:1041D000996BFCF791FD2946FCF78EFDFCF71CF965
:1041E0000246284614460D46FCF716F902460B46D1
:1041F00000201A49FBF7B0FF02460B46204629462D
:10420000FCF78CFA0022002304460D46FCF7CEFB97
:1042100058B920462946FCF711FC039A342311466D
:104220000A4A03FB01235862A6E60020F5E700BF17
:10423000E90B21E7FDFFEF3F7B14AE47E17A843FB6
:10424000E90B21E7FDFFEFBF242E002080050020B1
:1042500028340020FFFF7F7FA02F00200000F03FC8
:104260000000E03FAC2F0020044A054BD2E90010CB
:104270009268C3E900109A60704700BF3C34002088
:10428000242E0020064A074B12781B789A4233BF2F
:1042900003F1FF30393B981A801AC0B2704700BF53
:1042A000202E0020222E002008B502F0D7FD044A5F
:1042B000044B12781A70BDE80840FFF74BBB00BFF3
:1042C000222E0020212E002010B50446007828B1AF
:1042D00001F01EFE14F8010F0028F9D110BD00BF37
:1042E0006328F8B504461DD91B4EA6FB0035EF0820
:1042F000A6FB0736F60806F1300006EB8606A7EBAC
:10430000460601F005FE06F13000C0B201F000FEE5
:1043100007EB8700A4EB40003030C0B2BDE8F840A6
:1043200001F0F6BD092806D804F13000C0B2BDE89E
:10433000F84001F0EDBD0A26B4FBF6F505F13000BA
:10434000C0B201F0E5FD06FB1540BDE8F840303095
:10435000C0B201F0DDBD00BFCDCCCCCCF0B50D4678
:1043600085B000210646FCF765FE002840F0D280AB
:10437000012D40F2D7802C46704F30463946FCF76D
:10438000BBFC023CE4B2012C0646F6D805F0010362
:1043900023B130466A49FCF7AFFC06464FF07C512A
:1043A0003046FCF7A1FBFCF76DFE002800F0BC8056
:1043B0000024644F0246A7FB0013DB0803EB8301D4
:1043C000A0EB410004A900F130062144092A04F1C0
:1043D0000104184601F8106CE4B2EBD8A54272D97A
:1043E0003022631CDBB204A921449D4201F8102C49
:1043F00061D9A01CC0B204A91944854201F8102C4F
:1044000059D9E11C04AEC9B23044A94200F8102CBD
:1044100051D2201DC0B23144A84201F8102C4AD21A
:10442000611DC9B230448D4200F8102C43D9A01D43
:10443000C0B23144854201F8102C3CD9E11DC9B20B
:1044400030448D4200F8102C35D904F10800C0B278
:104450003144854201F8102C2DD904F10901C9B26B
:1044600030448D4200F8102C25D904F10A00C0B266
:104470003144854201F8102C1DD9164604F10B0277
:1044800004A9D2B20844954200F8106C13D904F183
:104490000C0104A8C9B202448D4202F8106C0AD97A
:1044A00004F10D02D2B20144954201F8106C02D918
:1044B000024402F8106C6A1E141B9D4238BF00248F
:1044C0001C4404F0FF04A5421CD06CB16F1E0DEB20
:1044D0000406FFB2A54209D016F8010D013C01F017
:1044E00017FD14F0FF04F5D105B0F0BD2E2001F04A
:1044F0000FFD16F8010D01F00BFD3C46002FE9D130
:1045000005B0F0BD302204AB6C1C2B4403F8102C1A
:10451000E4B2DAE72D2001F0FBFC012D06F10046A4
:104520003FF629AF2B4633E70446002D7FF458AF02
:10453000302301248DF80030C8E700BF0000C842D6
:1045400000002041CDCCCCCCF0B5894B87B093F89E
:10455000484014F001047ED0FBF75EFF82A3D3E94C
:104560000023FBF7B1FFFCF769FA00210546FCF7D1
:1045700061FD002840F0D7807E492846FCF7BCFB4F
:104580007C49FCF7B9FB4FF07C51FCF7ADFAFCF726
:1045900079FD03460190002800F0CB800025DFF86C
:1045A000DCC129461846ACFB0342D20802EB820468
:1045B000A3EB440303F1300706AB5E18013509286D
:1045C0001346EDB206F8107CEBD8032D23D8302229
:1045D0008C1CE4B206AB2B44042C03F8102C00F026
:1045E000BB800331C9B206AB2344042903F8102C65
:1045F00000F0B880302306AA0A44022902F8103CD1
:1046000001D18DF80B30042CC5F1030588BF0025BE
:104610002C4404F0FF05042D03D1302305258DF82B
:104620000C306E1EF6B208E013F8110C01F070FCAD
:104630007EB1013D013EEDB2F6B206AB042D2B4436
:10464000F2D12E2001F064FC9DF80B0001F060FC1B
:10465000EFE707B0F0BD00210546FCF7EBFC0028B2
:104660006ED144492846FCF747FB4349FCF744FB1D
:104670004FF07C51FCF738FAFCF704FD034601903B
:10468000002864D03D4F21461846A7FB0342D208BC
:1046900002EB8204A3EB440303F1300606AB5D1882
:1046A0004C1C09281346E4B205F8106CEBD8022C18
:1046B0001AD830208B1CDBB206AA2244032B02F846
:1046C000100C4BD006AA1344FF2903F8100C47D155
:1046D000302201238DF80A20032BC4F1020488BF85
:1046E00000241C4404F0FF04032C03D130230424D1
:1046F0008DF80B30651EEDB209E013F8110C01F0D6
:1047000007FC002DA5D0013C013DE4B2EDB206ABA3
:10471000032C2344F1D12E2001F0FAFB9DF80A006E
:1047200001F0F6FBEFE72D2001F0F2FB05F100456B
:1047300022E743F2300205460221ADF8082059E78E
:104740002D2001F0E5FB05F10040054689E743F225
:104750003003ADF80830BBE7032554E70224BBE77C
:104760000223B9E703244EE76568E1575128A43FC7
:10477000AC2F00200000C84200002041CDCCCCCCA2
:10478000F0B54F4B85B093F8484014F001044CD07D
:10479000FBF742FE48A3D3E90023FBF795FEFCF7A5
:1047A0004DF900210446FCF745FC00286DD1454930
:1047B0002046FCF7A1FA4FF07C51FCF795F9FCF785
:1047C00061FCB8B10024404E0246A6FB0013DB0892
:1047D00003EB8301A0EB410004A900F13005214463
:1047E000092A04F10104184601F8105CE4B2EBD880
:1047F000002C5DD130238DF80030302302248DF859
:10480000013004AB2344013C13F8110CE4B201F075
:104810007FFB012CF5D12E2001F07AFB9DF80000E2
:1048200005B0BDE8F04001F073BB00210546FCF780
:1048300001FCB0BB4FF07C512846FCF755F9FCF762
:1048400021FC40B3204F22460146A7FB0043DB0872
:1048500003EB8304A0EB440000F1300604A88518A4
:10486000541C09291846E4B205F8106CEBD894B131
:104870000DF1FF331D19AD1A6C4414F8010D01F050
:1048800047FBA542F9D105B0F0BD2D2001F040FB5A
:1048900004F100448BE7302005B0BDE8F04001F0A2
:1048A00037BB2D2001F034FB05F100400546C1E780
:1048B000012CA6D1A1E700BF6568E1575128A43FAC
:1048C000AC2F002000002041CDCCCCCC0021054AEB
:1048D000054B92F9482019808A42A4BF4FF4004248
:1048E0001A807047AC2F0020402E0020002307497B
:1048F000074A91F9481013809942AABF4FF400412A
:104900004FF40043118000B113807047AC2F00209A
:10491000402E0020054B064A9B68108803F4004394
:10492000181AB0FA80F04009704700BF0008014033
:10493000402E00200C4B0D4A9B68128803F4004364
:10494000934200D070470021094B30B4094D1970D3
:104950002B78094C094A43F040032B7007CA84E8BE
:10496000070030BC704700BF00080140402E002007
:104970005434002058340020483400203C340020B7
:1049800008B5FFF723F920B1BDE80840022003F085
:104990004BBA08BDF8B5AF4B1B78002B40F08380B5
:1049A000AD4CAE4D2B7803F0FF0593B3EA0600F152
:1049B000E280EB0700F1FC8015F0E80F0AD02378C5
:1049C0009F0700F006816EB2002EC0F23D81E82004
:1049D00003F034FAAE0719D515F0680F13D1237818
:1049E000402B00F06F81002B40F055810023237194
:1049F000FFF7ECF820B1A37813F0400300F09781A3
:104A00000023A3702370022003F018FA6B0700F153
:104A1000B580934B1B7803F0FF05002B70D1914BB1
:104A20001B7803F0FF0523B9237813F0FC0F36D170
:104A3000F8BD03F031FAA27A15F0010F0CBF13464E
:104A40006423A80744BF0A33DBB2690744BF0A3BAB
:104A5000DBB22F0744BF0133DBB2EE0644BF03F1E4
:104A6000FF33DBB2C82B28BFC8230A2B38BF0A2369
:104A70009A4206D000212279A37242F008032371E2
:104A80002173A80623781DD5102B1BD1E37A002BA8
:104A900040F021810223E37215F0C00F18D1BDE868
:104AA000F84002F0F1B9012603F0FF056A4C2846F0
:104AB000013D267000F070FBB5427FD9674D03F0D1
:104AC000D1F96FE715F0C00FAFD0002B40F0F580A3
:104AD000654F2A063E7A05D533064CBF06F07F06A1
:104AE00046F08006680605D571064CBF06F0BF0685
:104AF00046F040063046FCF77FFC23783E7294E790
:104B000003F0C2F9217A15F0010F0CBF0B466423A4
:104B1000AE0744BF0A33DBB2680744BF0A3BDBB2CF
:104B20002F0744BF0133DBB2EE0644BF03F1FF336E
:104B3000DBB2C82B28BFC8230A2B38BF0A23607AF0
:104B400015F0200F14BF6422024615F0400F18BF65
:104B5000322215F0800F18BF1922994202D18242E9
:104B60003FF45DAF0021237262722173FFF7BCF83E
:104B7000FFF79AFB53E701236370F8BD237813F026
:104B8000D00F02D0E378002B70D094F90220A378E4
:104B9000002A6FDB13F0200253D0402203F07F0382
:104BA00043F00103A3702270042003F047F930E7BB
:104BB00000F0B4FF012003F041F9FDE6304600F0BB
:104BC00001FB102003F03AF9244D2B78D906FCD5CF
:104BD00075E713F0280F0ED0A27812F0C00F00F086
:104BE00094806AB2164668060FD599060DD4A1784E
:104BF00041F0400107E0002BF3D101226E06A270C4
:104C000070D541216AB21646A1702A0702D513F069
:104C1000E00F6AD0AB067FF5D7AE062000F0D2FADF
:104C200094F90220A378002A07DB2278402A00F0BA
:104C30008D80802A01D04022227043F02003A3708F
:104C4000C2E6A2702270AFE72378012B1ED080232A
:104C50002370BCE65634002028340020583400204D
:104C600057340020553400203805002094F90230D4
:104C7000002B3DDA00232371FEF760FF02F032F8CB
:104C8000FCF7E0FCFFF7F0FAA37883E7A37843F0A2
:104C90000503A370DBE7DA067FF5B5AEA278D2078D
:104CA0007FF5B1AE102B7FF4A1AEE37A002B3FF479
:104CB0009DAE43F00803E372A5E613F0180F3FF42E
:104CC000B4AE05E7A37813F020027FF49CAED806BB
:104CD00035D522708AE6D9077FF5DEAE43F00403AE
:104CE000E372D9E62B076EB294D51023237091E7B7
:104CF000FFF7DAFA23799F0703D5A27842F0010281
:104D0000A27023F0060323714EE702F0A7F80222F7
:104D100023782271202B7FF46EAF6AB2002A1646E8
:104D2000FFF661AFA17861F07F01A1705BE7082217
:104D3000A370227002F0A8F801F0E8FD63E65907BD
:104D40007FF561AE43F00803A3705CE61F077FF5B3
:104D500072AF23F01C0343F002036CE72DE9F04F20
:104D600083B0FEF733FF002800F0E380467CD0F8E4
:104D700030808D4F97F848309A0700F1C880DFF8EF
:104D800030B29BF80240002C49D000254FF07E59EC
:104D90004FF0814A9BF80120002A40D1E30738D523
:104DA0009BF8001011F0C0003CD014F0040462D055
:104DB000802900F0D580402900F09D809BF80230CA
:104DC000180726D5794C627A002A00F08580990769
:104DD0001FD497F84820920773D59BF80420217AB6
:104DE00042F008028BF8042061B106F04000FCF7A5
:104DF00003FB01214846FEF7B1FC9BF8023003F0AB
:104E0000020232B943F0100302208BF8023003F0A3
:104E10000BF8FFF7BFFD9BF80240002CBAD103B09E
:104E2000BDE8F08F9BF80B307BB19C073CD55F4B06
:104E30005B7A002B6FD100238BF80B30FFF7AAFDB4
:104E40009BF80240002CA5D1E9E79BF804301B0732
:104E5000DFD5414606F0300001F022FC9BF804301B
:104E600023F008038BF80430FFF794FD9BF8024011
:104E7000002C8FD1D3E7294620468BF80B4001F058
:104E80000FFC2046FCF7B8FA9BF8023023F002032F
:104E900043F004038BF80230FFF77CFD9BF80240DF
:104EA000002C7FF477AFBAE713F00C0FB1D03F4A74
:104EB000527A002A44D11A07BDD5022002F0B4FF6D
:104EC000B9E7414606F0300001F0EAFB0121504607
:104ED000FEF744FC9BF80230217A03F0020200291D
:104EE0008FD0002A81D0FFF755FD9BF80240002C9F
:104EF0007FF450AF93E702F011FD9BF802300028D9
:104F00007FF45EAF03F0DF038BF8023058E7202018
:104F100002F0B0FF33E7294601F0C2FB01238BF812
:104F20000B30FFF737FD9BF80240002C7FF432AFC7
:104F300075E71E4B5E7A1A7AD3F81080164318E78D
:104F40000A2000F03FF997F84830990723D59BF8DD
:104F500004209BF80B3042F008028BF80420AAE7EB
:104F60000B20019200F02EF9019A0021104601F069
:104F700097FB019A1046FCF73FFA01F00BFD9BF8F6
:104F80000130002B7FF44BAFFFF704FD9BF801309D
:104F9000002BF9D043E7414606F0300001F080FBDA
:104FA0009BF80B3087E700BFAC2F002038050020AE
:104FB0002834002008B5FFF7EDFC044B9B7803B9BB
:104FC00008BDBDE80840FFF7C9BE00BF2834002077
:104FD000F8B5534B93F848301A0700F18780514ECB
:104FE000337813F081036DD0022000F0EBF8012339
:104FF0003370002425464C4F00F08CFFFF280ED064
:105000000A281AD00D2818D07DB32928F4D1AB076F
:10501000F2D500F07FFFFF2805F0FD05F0D1FEF787
:10502000D5FD10B1022002F0FFFEFFF7B3FCB3780C
:10503000ABBB7378002BDFD0F8BDFFF7ABFCB378C8
:10504000FBB97378002BF7D115F001053B551BD147
:105050003C78FCB1242C2CD0347814F0210421D0DD
:10506000092000F081F82C46C6E72028C4D92F2853
:10507000C2D0282824D03B2836D04E2C2AD901254E
:10508000BAE7FFF76BFEDCE70B201C461D4600F07D
:105090006BF8B1E7204600F067F82546ACE7FFF76C
:1050A0005DFEC6E73846FCF7D7FA00F05DF8254606
:1050B000A2E7384602F06AFC00F056F82C469BE75F
:1050C000022599E7337002F029FCD8B9164802F09E
:1050D0003BFC8EE7A0F16103DBB2192B98BF2038AF
:1050E000631C3855DCB287E7042585E7FDF760FDD2
:1050F00000283FF474AF01230A4E0720337000F0FC
:1051000061F86DE7094A137843F020031370FFF745
:1051100041FCB378002BD9D0FFF720FED6E700BFC3
:10512000AC2F002028340020442E002058340020CA
:1051300010B5FEF74BFD10B1022002F075FE094CD0
:10514000FFF728FCA3784BB9637833B9FEF73EFD2F
:105150000028F5D12378082BF2D010BDFFF7FEFD13
:10516000F2E700BF2834002010B90848FFF7ACB8B8
:1051700010B504460648FFF7A7F82046FFF7B0F839
:10518000BDE810400348FFF79FB800BFE8BC000827
:10519000F0BC0008CCBC000810B504460748FFF777
:1051A00093F82046FFF79CF80548FFF78DF8BDE817
:1051B00010404FF4FA70FEF70BBB00BFF8BC0008BC
:1051C000CCBC000810B504462048FFF77DF8601EEF
:1051D0000A280AD8DFE800F01115191D2125292D0C
:1051E000313506001A48FFF76FF85D2000F090FE99
:1051F000BDE810401748FFF767B81748FFF764F895
:10520000F3E71648FFF760F8EFE71548FFF75CF89B
:10521000EBE71448FFF758F8E7E71348FFF754F8AF
:10522000E3E71248FFF750F8DFE71148FFF74CF8C3
:10523000DBE71048FFF748F8D7E70F48FFF744F8D7
:10524000D3E70E48FFF740F8CFE700BF00BD0008E6
:10525000A4BD0008CCBC000808BD00081CBD0008A7
:1052600030BD000844BD00084CBD000858BD000812
:1052700064BD000874BD00087CBD000890BD000836
:105280000148FFF721B800BFB0BD00080148FFF793
:105290001BB800BFD4BD00082DE9F04FDB4C83B034
:1052A0002420256B00F034FE0020FFF719F83D2084
:1052B00000F02EFE03212846FFF750F8D448FFF7F0
:1052C00003F8242094F8365000F022FE0120FFF766
:1052D00007F83D2000F01CFE2846FFF701F8CC48F7
:1052E000FEF7F2FF242094F8345000F011FE022063
:1052F000FEF7F6FF3D2000F00BFE2846FEF7F0FF1C
:10530000C348FEF7E1FF242094F8355000F000FE7A
:105310000320FEF7E5FF3D2000F0FAFD2846FEF7EA
:10532000DFFFBB48FEF7D0FF94F84850242000F080
:10533000EFFD0420FEF7D4FFC5F380053D2000F00B
:10534000E7FD2846FEF7CCFFB148FEF7BDFF94F815
:105350004850242000F0DCFD0520FEF7C1FFC5F316
:1053600080153D2000F0D4FD2846FEF7B9FFA8487F
:10537000FEF7AAFF94F84850242000F0C9FD06204B
:10538000FEF7AEFFED093D2000F0C2FD2846FEF716
:10539000A7FF9F48FEF798FF242094F8375000F0AD
:1053A000B7FD0A20FEF79CFF3D2000F0B1FD284626
:1053B000FEF796FF9648FEF787FF2420A56B00F0C6
:1053C000A7FD0B20FEF78CFF3D2000F0A1FD03217F
:1053D0002846FEF7C3FF8E48FEF776FF2420E56BD4
:1053E00000F096FD0C20FEF77BFF3D2000F090FDC5
:1053F00003212846FEF7B2FF8548FEF765FF94F8C3
:105400004850242000F084FD0D20FEF769FF05F0D0
:1054100001053D2000F07CFD2846FEF761FF7C4839
:10542000FEF752FF94F84850242000F071FD14203C
:10543000FEF756FFC5F340153D2000F069FD2846F4
:10544000FEF74EFF7248FEF73FFF94F848502420C5
:1054500000F05EFD1520FEF743FFC5F3C0053D20BB
:1054600000F056FD2846FEF73BFF6948FEF72CFF8B
:1054700094F84850242000F04BFD1620FEF730FF32
:10548000C5F300153D2000F043FD2846FEF728FF38
:105490005F48FEF719FF242094F8495000F038FDCA
:1054A0001720FEF71DFF3D2000F032FD2846FEF7D5
:1054B00017FF5748FEF708FF2420E56C00F028FD91
:1054C0001820FEF70DFF3D2000F022FD03212846A5
:1054D000FEF744FF4E48FEF7F7FE2420256D00F04E
:1054E00017FD1920FEF7FCFE3D2000F011FD032101
:1054F0002846FEF733FF4648FEF7E6FE2420B4F8C0
:10550000545000F005FD1A20FEF7EAFE3D2000F0A1
:10551000FFFCE8B2FEF7E4FE3D48FEF7D5FE24208E
:10552000A56D00F0F5FC1B20FEF7DAFE3D2000F033
:10553000EFFC03212846FEF711FF3548FEF7C4FEB5
:105540002420256C00F0E4FC1E20FEF7C9FE3D205F
:1055500000F0DEFC00212846FEF700FF2C48FEF795
:10556000B3FE2420656C00F0D3FC1F20FEF7B8FECC
:105570003D2000F0CDFC00212846FEF7EFFE244838
:10558000FEF7A2FE94F84850242000F0C1FC202031
:10559000FEF7A6FEC5F340053D2000F0B9FC284605
:1055A000FEF79EFE1A48FEF78FFE2420E56D00F000
:1055B000AFFC2820FEF794FE3D2000F0A9FC03215B
:1055C0002846FEF7CBFE1248FEF77EFE242094F814
:1055D000604000F09DFC3220FEF782FE3D2000F08E
:1055E00097FC2046FEF77CFE0948FEF76DFE00277B
:1055F0004FF06408DFF81890022F4FF00104034EBB
:105600005FFA87FB08F1FF3A28D003E0AC2F0020B7
:10561000CCBC000804EB0A00BBF1030FC5B23AD0C2
:10562000BBF1010F30D024203268019200F070FCF1
:105630002846FEF755FE3D2000F06AFC019A032142
:105640001046FEF78BFE4846FEF73EFE032C0FD0B9
:105650000134022FE4B206F10406DBD11C49B06923
:10566000FBF7FEFB04EB0A050190EDB22420DDE719
:1056700008F10A085FFA88F8B8F18C0F07F1010702
:10568000BAD103B0BDE8F08FF26804EB0A0524201C
:10569000EDB20192CAE7726A04EB0A0502F1004218
:1056A0002420EDB2019200F033FC2846FEF718FEEC
:1056B0003D2000F02DFC019A59461046FEF74EFEA3
:1056C0004846FEF701FE032CC2D103B0BDE8F08FBF
:1056D0000000614500B5134885B0FEF7F5FD12499D
:1056E00001A802F057FB0198FEF72EFF2C2000F0D6
:1056F0000FFC0298FEF728FF2C2000F009FC03980D
:10570000FEF722FF3A2000F003FC084B5879FEF721
:10571000E7FD5D2000F0FCFB0548FEF7D5FD05B078
:105720005DF804FB20BE0008483400202834002027
:10573000CCBC00082DE9F041002586B0ECB2204633
:105740006946564EDFF87C81554F00F0F3FC002887
:1057500000F094803046FEF7B7FD062D00F09A80E9
:10576000072C65D14F48FEF7AFFD3A2000F0D0FB83
:105770000098FEF7E9FE2C2000F0CAFB0198FEF726
:10578000E3FE2C2000F0C4FB0298FEF7DDFE5D2056
:1057900000F0BEFB444C4248FEF796FD4348FEF73E
:1057A00093FDA06BFEF7D0FE2C2000F0B1FBE06B68
:1057B000FEF7CAFE2C2000F0ABFB206CFEF7C4FE07
:1057C0005D2000F0A5FB3648FEF77EFD3848FEF769
:1057D0007BFD606CFEF7B8FE5D2000F099FB304861
:1057E000FEF772FD3348FEF76FFD334903A802F060
:1057F000D1FA0398FEF7A8FE2C2000F089FB04984C
:10580000FEF7A2FE2C2000F083FB0598FEF79CFE1D
:105810003A2000F07DFB294B5879FEF761FD5D20B1
:1058200000F076FB1E48FEF74FFD06B0BDE8F081A4
:1058300004F13600C0B2FEF753FD3A2000F068FBD9
:105840000098FEF781FE2C2000F062FB0198FEF725
:105850007BFE2C2000F05CFB0298FEF775FE013504
:105860005D2000F055FBECB23846FEF72DFD2046DA
:10587000694600F05FFC00287FF46CAF1048FEF72B
:1058800023FD0720FEF72CFD0548FEF71DFD06B0A1
:10589000BDE8F0814046FEF717FDCEE728BE0008C0
:1058A000CCBC000830BE00083805002034BE00081B
:1058B0003CBE000820BE00084834002028340020E8
:1058C000F0BC00082CBE000810B5524C5248FEF740
:1058D000FBFC20788B285FD95048FEF7F5FC207838
:1058E0007630C0B2FEF7FCFC4D48FEF7EDFCA07927
:1058F0003630C0B2FEF7F4FC4948FEF7E5FC2079EB
:105900001130C0B2FEF7ECFC4548FEF7DDFCA07894
:10591000C0F11500C0B2FEF7E3FC4148FEF7D4FC2D
:10592000E0785A30C0B2FEF7DBFC3D48FEF7CCFC15
:105930006078C0F15E00C0B2FEF7D2FCE379002BC4
:105940003BD13848FEF7C0FC637A102B47D0202BA0
:105950004DD0002B47D0237A43B31A064BD45B06B5
:105960001DD43148FEF7B0FC207EFEF7B9FC2F486D
:10597000FEF7AAFC6069FEF703FF2D48FEF7A4FCC2
:1059800020690021FEF7EAFC5D2000F0C1FABDE8C5
:1059900010402848FEF798BCFEF7A2FCA4E7214877
:1059A000FEF792FC382000F0B3FADAE71D48FEF764
:1059B0008BFC392000F0ACFAD3E71A48FEF784FCE0
:1059C000E079032821D01E2801D00228B9D1FEF7A2
:1059D00087FC1448FEF778FC637A102BB7D133208C
:1059E00000F096FAB7E7352000F092FAB3E73420DA
:1059F00000F08EFAAFE70B48FEF766FC372000F0A8
:105A000087FA237A5B06ACD5C9E7302000F080FA2C
:105A100097E700BF3805002044BE00084CBE0008D0
:105A200050BE000854BE000858BE00085CBE000806
:105A300060BE0008CCBC000838B505460C460848D6
:105A4000FEF742FC2846FEF74BFC3D2000F060FAD2
:105A50002046FEF739FCBDE838400248FEF734BC6A
:105A600064BE0008CCBC000838B505460C463E2094
:105A700000F04EFA2846FEF727FC3A2000F048FADC
:105A800024B9BDE838400748FEF71EBC0648FEF7BB
:105A90001BFC2046FEF724FCBDE838400348FEF717
:105AA00013BC00BFE8BC0008F0BC0008CCBC000878
:105AB00010B504461648FEF707FC2046154CFEF7C5
:105AC00003FC5D2000F024FA2046FEF7FDFB12489F
:105AD000FEF7FAFB562000F01BFA4D2000F018FAF2
